:100000000C9462000C948A000C948A000C948A0070
:100010000C948A000C948A000C948A000C948A0038
:100020000C948A000C948A000C948A000C948A0028
:100030000C948A000C948A000C948A000C948A0018
:100040000C942B030C948A000C949B030C94750362
:100050000C948A000C948A000C948A000C948A00F8
:100060000C948A000C948A000000000024002700F1
:100070002A0000000000250028002B0000000000DE
:1000800023002600290004040404040404040202DA
:100090000202020203030303030301020408102007
:1000A0004080010204081020010204081020000012
:1000B0000008000201000003040700000000000027
:1000C00000001D0511241FBECFEFD8E0DEBFCDBF5D
:1000D00011E0A0E0B1E0E8EEFAE002C005900D9278
:1000E000AA31B107D9F721E0AAE1B1E001C01D9220
:1000F000A13CB207E1F710E0C2E6D0E004C02197CE
:10010000FE010E946C05C136D107C9F70E94CD03DC
:100110000C9472050C940000AF92BF92CF92DF92C4
:10012000EF92FF920F931F93CF93DF936C017B01AC
:100130008B01040F151FEB015E01AE18BF08C0173D
:10014000D10759F06991D601ED91FC910190F081B0
:10015000E02DC6010995892B79F7C501DF91CF9173
:100160001F910F91FF90EF90DF90CF90BF90AF90D5
:100170000895FC01538D448D252F30E0842F90E0AD
:10018000821B930B541710F0CF9608950197089592
:10019000FC01918D828D981761F0A28DAE0FBF2F5B
:1001A000B11D5D968C91928D9F5F9F73928F90E0B1
:1001B00008958FEF9FEF0895FC01918D828D981720
:1001C00031F0828DE80FF11D858D90E008958FEF5D
:1001D0009FEF0895FC01918D228D892F90E0805C26
:1001E0009F4F821B91098F739927089584E291E0B4
:1001F0000E94EA0021E0892B09F420E0822F089573
:1002000080E090E0892B29F00E94F60081110C9487
:1002100000000895FC01A48DA80FB92FB11DA35AA9
:10022000BF4F2C91848D90E001968F739927848F16
:10023000A689B7892C93A089B1898C918370806439
:100240008C93938D848D981306C00288F389E02DDA
:1002500080818F7D80830895EF92FF920F931F938B
:10026000CF93DF93EC0181E0888F9B8D8C8D981369
:100270001AC0E889F989808185FF15C09FB7F89475
:10028000EE89FF896083E889F989808183708064C1
:1002900080839FBF81E090E0DF91CF911F910F910C
:1002A000FF90EF900895F62E0B8D10E00F5F1F4F1B
:1002B0000F731127E02E8C8D8E110CC00FB607FC2A
:1002C000FACFE889F989808185FFF5CFCE010E94B8
:1002D0000A01F1CFEB8DEC0FFD2FF11DE35AFF4F1B
:1002E000F0829FB7F8940B8FEA89FB898081806246
:1002F000CFCFCF93DF93EC01888D8823B9F0AA8903
:10030000BB89E889F9898C9185FD03C0808186FDD0
:100310000DC00FB607FCF7CF8C9185FFF2CF80811F
:1003200085FFEDCFCE010E940A01E9CFDF91CF9189
:100330000895833081F028F4813099F08230A9F05B
:1003400008958730A9F08830C9F08430B1F48091E5
:1003500080008F7D03C0809180008F778093800024
:10036000089584B58F7784BD089584B58F7DFBCFC4
:100370008091B0008F778093B00008958091B00095
:100380008F7DF9CFCF93DF93282F30E0F901E2552D
:10039000FF4F8491F901E656FF4FD491F901EA57D6
:1003A000FF4FC491CC23A1F081110E949901EC2F41
:1003B000F0E0EE0FFF1FE458FF4FA591B491EC91D0
:1003C000ED2381E090E009F480E0DF91CF91089582
:1003D00080E090E0FACF1F93CF93DF93282F30E097
:1003E000F901E255FF4F8491F901E656FF4FD49190
:1003F000F901EA57FF4FC491CC23A9F0162F8111C0
:100400000E949901EC2FF0E0EE0FFF1FEE58FF4F16
:10041000A591B4918FB7F894EC91111108C0D095C3
:10042000DE23DC938FBFDF91CF911F910895DE2BE8
:10043000F8CFCF93DF9390E0FC01E656FF4F249175
:100440008A579F4FFC0184918823D1F090E0880F58
:10045000991FFC01E859FF4FA591B491FC01EE589A
:10046000FF4FC591D49161110EC09FB7F8948C9144
:10047000E22FE0958E238C932881E223E8839FBFAF
:10048000DF91CF9108958FB7F894EC91E22BEC9324
:100490008FBFF6CF1F93CF93DF93182FEB0161E04F
:1004A0000E941902209739F460E0812FDF91CF91EB
:1004B0001F910C94EB01CF3FD10511F461E0F5CF12
:1004C000E12FF0E0E255FF4FE491E33031F140F4E9
:1004D000E130B1F0E230E1F0C038D1057CF7E4CF93
:1004E000E73029F1E83059F1E430B1F7809180002C
:1004F000806280938000D0938B00C0938A0004C0F8
:1005000084B5806884BDC7BDDF91CF911F910895E8
:1005100084B5806284BDC8BDF7CF809180008068BB
:1005200080938000D0938900C0938800EDCF8091A4
:10053000B00080688093B000C093B300E5CF809195
:10054000B00080628093B000C093B400DDCF8F9282
:100550009F92AF92BF920F931F93CF93DF93CDB72C
:10056000DEB7A1970FB6F894DEBF0FBECDBF19A2BC
:10057000423008F44AE08E010F5D1F4F842E912C0B
:10058000B12CA12CA50194010E944A05E62FB901C6
:10059000CA01EA3044F5E05DD801EE938D01232BCA
:1005A000242B252B79F790E080E0109769F0FD016E
:1005B00001900020E9F73197AF014A1B5B0BBD01A9
:1005C00084E291E00E948C00A1960FB6F894DEBF01
:1005D0000FBECDBFDF91CF911F910F91BF90AF9014
:1005E0009F908F900895E95CD7CFCF92DF92EF92E2
:1005F000FF92CF93DF936C01990FEE08FF08F7FE8F
:1006000023C06DE284E291E00E942C01EC01662798
:100610007727CB016C197D098E099F094AE00E945A
:10062000A702C80FD91F42E050E066E171E084E202
:1006300091E00E948C008C0F9D1FDF91CF91FF9065
:10064000EF90DF90CF9008954AE0C701B6010E9475
:10065000A702EC01E8CF1F920F920FB60F92112460
:100660002F933F938F939F93AF93BF9380912001DC
:1006700090912101A0912201B091230130911F019D
:1006800023E0230F2D3758F50196A11DB11D2093AE
:100690001F018093200190932101A0932201B09328
:1006A000230180911B0190911C01A0911D01B0912B
:1006B0001E010196A11DB11D80931B0190931C0189
:1006C000A0931D01B0931E01BF91AF919F918F9197
:1006D0003F912F910F900FBE0F901F90189526E815
:1006E000230F0296A11DB11DD2CF1F920F920FB6FC
:1006F0000F9211242F933F934F935F936F937F93A8
:100700008F939F93AF93BF93EF93FF9384E291E016
:100710000E940A01FF91EF91BF91AF919F918F913C
:100720007F916F915F914F913F912F910F900FBEED
:100730000F901F9018951F920F920FB60F921124D1
:100740002F938F939F93EF93FF93E0913401F09158
:1007500035018081E0913A01F0913B0182FD1BC09F
:10076000908180913D018F5F8F7320913E018217B0
:1007700041F0E0913D01F0E0EC5DFE4F958F8093FC
:100780003D01FF91EF919F918F912F910F900FBE9F
:100790000F901F9018958081F4CF789484B5826073
:1007A00084BD84B5816084BD85B5826085BD85B515
:1007B000816085BD80916E00816080936E00109293
:1007C000810080918100826080938100809181000E
:1007D000816080938100809180008160809380009F
:1007E0008091B10084608093B1008091B0008160FD
:1007F0008093B00080917A00846080937A00809129
:100800007A00826080937A0080917A008160809380
:100810007A0080917A00806880937A001092C100FB
:1008200060E082E00E94190260E083E00E94190209
:1008300060E084E00E94190260E085E00E941902F5
:1008400061E089E00E94190261E08AE00E941902D9
:10085000E0913401F091350182E08083E091300134
:10086000F09131011082E0913201F09133018FEC6F
:10087000808310923C01E0913801F091390186E0CB
:100880008083E0913601F09137018081806180831F
:10089000E0913601F0913701808188608083E0919A
:1008A0003601F0913701808180688083E0913601C4
:1008B000F091370180818F7D808377247394C0E02D
:1008C000D0E001E010E082E0E82EF12C82E00E940E
:1008D000C2015C0183E00E94C2016C0184E00E94BD
:1008E000C2014C0185E00E94C2019C0190911A0155
:1008F000AB2889F5972590931A0182E00E94C201E6
:10090000892BD9F380911A01882309F468C080915A
:100910000201909103010E94F502809100019091E3
:1009200001018130910509F04CC070E060E08AE07F
:100930000E944A02609102017091030189E00E94C5
:100940004A02209719F20E94F600882309F4BECFCC
:100950000E940000BBCFCD28A9F4992309F453C00D
:1009600080910201909103018A3091052CF00A9741
:10097000909303018093020183E00E94C201892BBE
:10098000D9F3C0CF892809F041C0992309F4BACF1F
:100990008091020190910301863F91052CF40A9603
:1009A000909303018093020184E00E94C201892B8D
:1009B000D9F3A8CF0297D9F5109301010093000154
:1009C00036C0029709F0BDCF70E060E089E00E9478
:1009D0004A0260910201709103018AE0B0CF90E079
:1009E00080E00E94F5028091000190910101813028
:1009F000910519F470E060E0A1CF029709F0A1CF52
:100A000070E060E0EACF892809F47CCF232B09F05D
:100A100079CF992309F476CF80910001909101015B
:100A20008130910539F6F0920101E092000185E0F4
:100A30000E94C201892BD9F365CFE4E2F1E0138271
:100A4000128288EE93E0A0E0B0E084839583A683D1
:100A5000B78388E091E09183808385EC90E095876F
:100A6000848784EC90E09787868780EC90E0918B78
:100A7000808B81EC90E0938B828B82EC90E0958B65
:100A8000848B86EC90E0978B868B118E128E138E62
:100A9000148E0895A1E21A2EAA1BBB1BFD010DC0E6
:100AA000AA1FBB1FEE1FFF1FA217B307E407F5071E
:100AB00020F0A21BB30BE40BF50B661F771F881FFA
:100AC000991F1A9469F760957095809590959B0190
:100AD000AC01BD01CF010895EE0FFF1F0590F49109
:080AE000E02D0994F894FFCF0A
:100AE8000100FF00000000002C018C00B900790112
:0A0AF800EA00C800DC000D0A00004F
:107E0000112484B714BE81FFF0D085E080938100F7
:107E100082E08093C00088E18093C10086E0809377
:107E2000C20080E18093C4008EE0C9D0259A86E02C
:107E300020E33CEF91E0309385002093840096BBD3
:107E4000B09BFECF1D9AA8958150A9F7CC24DD24C4
:107E500088248394B5E0AB2EA1E19A2EF3E0BF2EE7
:107E6000A2D0813461F49FD0082FAFD0023811F036
:107E7000013811F484E001C083E08DD089C08234E0
:107E800011F484E103C0853419F485E0A6D080C0E4
:107E9000853579F488D0E82EFF2485D0082F10E0AE
:107EA000102F00270E291F29000F111F8ED06801E7
:107EB0006FC0863521F484E090D080E0DECF843638
:107EC00009F040C070D06FD0082F6DD080E0C81688
:107ED00080E7D80618F4F601B7BEE895C0E0D1E017
:107EE00062D089930C17E1F7F0E0CF16F0E7DF06D8
:107EF00018F0F601B7BEE89568D007B600FCFDCFD4
:107F0000A601A0E0B1E02C9130E011968C91119780
:107F100090E0982F8827822B932B1296FA010C0160
:107F200087BEE89511244E5F5F4FF1E0A038BF0790
:107F300051F7F601A7BEE89507B600FCFDCF97BE46
:107F4000E89526C08437B1F42ED02DD0F82E2BD052
:107F50003CD0F601EF2C8F010F5F1F4F84911BD097
:107F6000EA94F801C1F70894C11CD11CFA94CF0C13
:107F7000D11C0EC0853739F428D08EE10CD085E9AC
:107F80000AD08FE07ACF813511F488E018D01DD067
:107F900080E101D065CF982F8091C00085FFFCCF94
:107FA0009093C60008958091C00087FFFCCF809118
:107FB000C00084FD01C0A8958091C6000895E0E648
:107FC000F0E098E1908380830895EDDF803219F02E
:107FD00088E0F5DFFFCF84E1DECF1F93182FE3DFCA
:107FE0001150E9F7F2DF1F91089580E0E8DFEE27F6
:047FF000FF270994CA
:027FFE00040479
:0400000300007E007B
:00000001FF
