:100000000C9462000C948A000C948A000C948A0070
:100010000C948A000C948A000C948A000C948A0038
:100020000C948A000C948A000C948A000C943A0375
:100030000C948A000C948A000C948A000C948A0018
:100040000C9498020C948A000C9408030C94E2021D
:100050000C948A000C948A000C948A000C948A00F8
:100060000C948A000C948A000000000024002700F1
:100070002A0000000000250028002B0000000000DE
:1000800023002600290004040404040404040202DA
:100090000202020203030303030301020408102007
:1000A0004080010204081020010204081020000012
:1000B0000008000201000003040700000000000027
:1000C0000000F60311241FBECFEFD8E0DEBFCDBF86
:1000D00011E0A0E0B1E0E4E4FDE002C005900D9283
:1000E000A831B107D9F721E0A8E1B1E001C01D9224
:1000F000A73EB207E1F710E0C2E6D0E004C02197C6
:10010000FE010E949A06C136D107C9F70E94530426
:100110000C94A0060C940000AF92BF92CF92DF9295
:10012000EF92FF920F931F93CF93DF936C017B01AC
:100130008B01040F151FEB015E01AE18BF08C0173D
:10014000D10759F06991D601ED91FC910190F081B0
:10015000E02DC6010995892B79F7C501DF91CF9173
:100160001F910F91FF90EF90DF90CF90BF90AF90D5
:100170000895FC01538D448D252F30E0842F90E0AD
:10018000821B930B541710F0CF9608950197089592
:10019000FC01918D828D981761F0A28DAE0FBF2F5B
:1001A000B11D5D968C91928D9F5F9F73928F90E0B1
:1001B00008958FEF9FEF0895FC01918D828D981720
:1001C00031F0828DE80FF11D858D90E008958FEF5D
:1001D0009FEF0895FC01918D228D892F90E0805C26
:1001E0009F4F821B91098F739927089582E291E0B6
:1001F0000E94EA0021E0892B09F420E0822F089573
:1002000080E090E0892B29F00E94F60081110C9487
:1002100000000895FC01A48DA80FB92FB11DA35AA9
:10022000BF4F2C91848D90E001968F739927848F16
:10023000A689B7892C93A089B1898C918370806439
:100240008C93938D848D981306C00288F389E02DDA
:1002500080818F7D80830895EF92FF920F931F938B
:10026000CF93DF93EC0181E0888F9B8D8C8D981369
:100270001AC0E889F989808185FF15C09FB7F89475
:10028000EE89FF896083E889F989808183708064C1
:1002900080839FBF81E090E0DF91CF911F910F910C
:1002A000FF90EF900895F62E0B8D10E00F5F1F4F1B
:1002B0000F731127E02E8C8D8E110CC00FB607FC2A
:1002C000FACFE889F989808185FFF5CFCE010E94B8
:1002D0000A01F1CFEB8DEC0FFD2FF11DE35AFF4F1B
:1002E000F0829FB7F8940B8FEA89FB898081806246
:1002F000CFCFCF93DF93EC01888D8823B9F0AA8903
:10030000BB89E889F9898C9185FD03C0808186FDD0
:100310000DC00FB607FCF7CF8C9185FFF2CF80811F
:1003200085FFEDCFCE010E940A01E9CFDF91CF9189
:100330000895833081F028F4813099F08230A9F05B
:1003400008958730A9F08830C9F08430B1F48091E5
:1003500080008F7D03C0809180008F778093800024
:10036000089584B58F7784BD089584B58F7DFBCFC4
:100370008091B0008F778093B00008958091B00095
:100380008F7DF9CFCF93DF93282F30E0F901E2552D
:10039000FF4F8491F901E656FF4FD491F901EA57D6
:1003A000FF4FC491CC23A1F081110E949901EC2F41
:1003B000F0E0EE0FFF1FE458FF4FA591B491EC91D0
:1003C000ED2381E090E009F480E0DF91CF91089582
:1003D00080E090E0FACF1F93CF93DF93282F30E097
:1003E000F901E255FF4F8491F901E656FF4FD49190
:1003F000F901EA57FF4FC491CC23A9F0162F8111C0
:100400000E949901EC2FF0E0EE0FFF1FEE58FF4F16
:10041000A591B4918FB7F894EC91111108C0D095C3
:10042000DE23DC938FBFDF91CF911F910895DE2BE8
:10043000F8CFCF93DF9390E0FC01E656FF4F249175
:100440008A579F4FFC0184918823D1F090E0880F58
:10045000991FFC01E859FF4FA591B491FC01EE589A
:10046000FF4FC591D49161110EC09FB7F8948C9144
:10047000E22FE0958E238C932881E223E8839FBFAF
:10048000DF91CF9108958FB7F894EC91E22BEC9324
:100490008FBFF6CF8F929F92AF92BF920F931F9311
:1004A000CF93DF93CDB7DEB7A1970FB6F894DEBF39
:1004B0000FBECDBF19A2423008F44AE08E010F5D95
:1004C0001F4F842E912CB12CA12CA50194010E94C8
:1004D0005606E62FB901CA01EA3044F5E05DD801BD
:1004E000EE938D01232B242B252B79F790E080E0D0
:1004F000109769F0FD0101900020E9F73197AF01F5
:100500004A1B5B0BBD0182E291E00E948C00A19628
:100510000FB6F894DEBF0FBECDBFDF91CF911F9114
:100520000F91BF90AF909F908F900895E95CD7CFC7
:100530001F920F920FB60F9211242F933F938F9318
:100540009F93AF93BF9380911E0190911F01A09143
:100550002001B091210130911D0123E0230F2D379F
:1005600058F50196A11DB11D20931D0180931E0118
:1005700090931F01A0932001B09321018091190154
:1005800090911A01A0911B01B0911C010196A11D2F
:10059000B11D8093190190931A01A0931B01B09390
:1005A0001C01BF91AF919F918F913F912F910F901F
:1005B0000FBE0F901F90189526E8230F0296A11DDD
:1005C000B11DD2CF1F920F920FB60F9211242F930D
:1005D0003F934F935F936F937F938F939F93AF93CB
:1005E000BF93EF93FF9382E291E00E940A01FF9193
:1005F000EF91BF91AF919F918F917F916F915F919B
:100600004F913F912F910F900FBE0F901F90189513
:100610001F920F920FB60F9211242F938F939F93D7
:10062000EF93FF93E0913201F09133018081E091EB
:100630003801F091390182FD1BC0908180913B010E
:100640008F5F8F7320913C01821741F0E0913B0155
:10065000F0E0EE5DFE4F958F80933B01FF91EF91AF
:100660009F918F912F910F900FBE0F901F90189513
:100670008081F4CF1F920F920FB60F9211242F9307
:100680003F934F935F936F937F938F939F93AF931A
:10069000BF93CF93DF93EF93FF9380911801C091A5
:1006A000E301D0E087FF24C01092850010928400FF
:1006B000809118018F5F8093180180911801082E96
:1006C000000C990B8C179D0724F4809118018C3035
:1006D000C4F18091840090918500049680349C49F7
:1006E00008F47AC08091840090918500049676C0C9
:1006F00080911801082E000C990B8C179D07C4F6E9
:10070000E09118018E2FEE0F990BFC01EE0FFF1FE9
:10071000E80FF91FE154FE4F808186FFC9CFE091B9
:1007200018018E2FEE0F990BFC01EE0FFF1FE80F43
:10073000F91FE154FE4F808160E08F730E94EB014E
:10074000B7CF2091840030918500E09118018E2F61
:10075000EE0F990BFC01EE0FFF1FE80FF91FE1549C
:10076000FE4F81819281820F931F90938900809325
:100770008800E09118018E2FEE0F990BFC01EE0F0F
:10078000FF1FE80FF91FE154FE4F808186FF11C063
:10079000E09118018E2FEE0F990BFC01EE0FFF1F59
:1007A000E80FF91FE154FE4F808161E08F730E94D2
:1007B000EB01FF91EF91DF91CF91BF91AF919F91AD
:1007C0008F917F916F915F914F913F912F910F90FA
:1007D0000FBE0F901F90189580E49CE990938900BC
:1007E000809388008FEF80931801E3CF109225014A
:1007F0001092240188EE93E0A0E0B0E080932601FF
:1008000090932701A0932801B093290186E091E0FD
:10081000909323018093220185EC90E090932F0127
:1008200080932E0184EC90E090933101809330010D
:1008300080EC90E0909333018093320181EC90E062
:10084000909335018093340182EC90E090933701CE
:100850008093360186EC90E09093390180933801C3
:1008600010923B0110923C0110923D0110923E010A
:100870008091E3018C3098F491E0980F9093E3011C
:100880008093E40190E0FC01EE0FFF1FE80FF91FD9
:10089000E154FE4F88EB9BE09283818308958FEFB4
:1008A0008093E4010895789484B5826084BD84B512
:1008B000816084BD85B5826085BD85B5816085BD5B
:1008C00080916E00816080936E0010928100809113
:1008D000810082608093810080918100816080939B
:1008E0008100809180008160809380008091B100C0
:1008F00084608093B1008091B00081608093B000EB
:1009000080917A00846080937A0080917A0082607E
:1009100080937A0080917A00816080937A00809140
:100920007A00806880937A001092C10060E082E0D3
:100930000E94190260E083E00E94190261E089E0F0
:100940000E94190261E08AE00E9419028091E4018C
:100950008C3008F051C061E089E00E94190280915A
:10096000E401282F30E0F901EE0FFF1FE20FF31F23
:10097000E154FE4F9081907C996090831092E50144
:100980001092E6012CE0622F0E948706829FB00140
:10099000112430E020E0AB01420F531FFA01EE0FAB
:1009A000FF1FE40FF51FE154FE4F908196FD16C026
:1009B0002F5F3F4F2C30310571F781110FC010921E
:1009C000800082E080938100109285001092840064
:1009D000B19A80916F00826080936F00E091E40192
:1009E0008E2F90E0FC01EE0FFF1FE80FF91FE1547E
:1009F000FE4F808180648083E0913201F091330169
:100A000082E08083E0912E01F0912F011082E0912D
:100A10003001F09131018FEC808310923A01E09126
:100A20003601F091370186E08083E0913401F09146
:100A30003501808180618083E0913401F09135013E
:100A4000808188608083E0913401F091350180815C
:100A500080688083E0913401F091350180818F7D41
:100A60008083A4EB8A2E912CA12CB12CC8E8D0E075
:100A700008E512E0B0E02B2EB0E03B2E82E00E94B1
:100A8000C2016C0183E00E94C201209100013091FB
:100A90000101CD2809F0C6C02B3A310534F4265F98
:100AA0003F4F309301012093000182E00E94C20178
:100AB000892BD9F3A0910001B091010128EE33E018
:100AC0000E949306A50194010E94240669017A01FF
:100AD00068EEC60E63E0D61EE11CF11CA60170E2B2
:100AE000C71672E0D706DCF58091E5012E01481AA1
:100AF000510887FD5394440C551C440C551C052C7F
:100B0000000C660877088091E6019801281B3109DE
:100B100087FD3395C901880F991F880F991F092EEA
:100B2000000CAA0BBB0B9C01AD0124193509460929
:100B30005709D601A53BB10514F0A4EBB0E0B7FF0F
:100B400002C0B0E0A0E00E944E06A50194010E9400
:100B50002406BA01A901440D551D661D771D20917B
:100B6000E4012C3078F58091E501BE01681B710924
:100B700087FD7395CB01880F991F880F991F481720
:100B8000590784F08091E601B801681B710987FD5F
:100B90007395CB01880F991F880F991F4817590724
:100BA0000CF4CA010297880F991F4FB7F89430E0F0
:100BB000F901EE0FFF1FE20FF31FE154FE4F928386
:100BC00081834FBF4090000150900101052C000C23
:100BD000660877084AE0C301B20177FE0DC06DE2F6
:100BE00082E291E00E942C0166277727CB016419ED
:100BF0007509860997094AE00E944A0242E050E0DE
:100C000064E171E082E291E00E948C0021143104E1
:100C100009F434CF0E94F600882309F42FCF0E94F4
:100C200000002CCF892B09F045CF2A30310534F054
:100C30002A503109309301012093000183E00E9482
:100C4000C201892BD9F336CF052E97FB1EF40094F1
:100C50000E943B0657FD07D00E94560607FC03D0B2
:100C60004EF40C943B0650954095309521953F4F9E
:100C70004F4F5F4F089590958095709561957F4F88
:100C80008F4F9F4F08950E947806A59F900DB49FA7
:100C9000900DA49F800D911D11240895B7FF0C9411
:100CA00043060E944306821B930B0895A1E21A2E6D
:100CB000AA1BBB1BFD010DC0AA1FBB1FEE1FFF1F00
:100CC000A217B307E407F50720F0A21BB30BE40B50
:100CD000F50B661F771F881F991F1A9469F7609597
:100CE0007095809590959B01AC01BD01CF01089551
:100CF000A29FB001B39FC001A39F700D811D11245D
:100D0000911DB29F700D811D1124911D0895991B95
:100D100079E004C0991F961708F0961B881F7A95F2
:100D2000C9F7809508950E947806B7FF0895821B41
:100D3000930B0895EE0FFF1F0590F491E02D099499
:040D4000F894FFCF55
:100D44005A00000000002C018C00B9007901EA006F
:080D5400C800DC000D0A0000DC
:00000001FF
