:100000000C9462000C948A000C948A000C948A0070
:100010000C948A000C948A000C948A000C948A0038
:100020000C948A000C948A000C948A000C948A0028
:100030000C948A000C948A000C948A000C948A0018
:100040000C94B2030C948A000C9480030C945A0311
:100050000C948A000C948A000C948A000C948A00F8
:100060000C948A000C948A000000000024002700F1
:100070002A0000000000250028002B0000000000DE
:1000800023002600290004040404040404040202DA
:100090000202020203030303030301020408102007
:1000A0004080010204081020010204081020000012
:1000B0000008000201000003040700000000000027
:1000C0000000FC0311241FBECFEFD8E0DEBFCDBF80
:1000D00011E0A0E0B1E0E0EFFCE002C005900D927D
:1000E000A431B107D9F721E0A4E1B1E001C01D922C
:1000F000A43DB207E1F710E0C2E6D0E004C02197CA
:10010000FE010E943A06C136D107C9F70E94610478
:100110000C9476060C940000AF92BF92CF92DF92BF
:10012000EF92FF920F931F93CF93DF936C017B01AC
:100130008B01040F151FEB015E01AE18BF08C0173D
:10014000D10759F06991D601ED91FC910190F081B0
:10015000E02DC6010995892B79F7C501DF91CF9173
:100160001F910F91FF90EF90DF90CF90BF90AF90D5
:100170000895FC01538D448D252F30E0842F90E0AD
:10018000821B930B541710F0CF9608950197089592
:10019000FC01918D828D981761F0A28DAE0FBF2F5B
:1001A000B11D5D968C91928D9F5F9F73928F90E0B1
:1001B00008958FEF9FEF0895FC01918D828D981720
:1001C00031F0828DE80FF11D858D90E008958FEF5D
:1001D0009FEF0895FC01918D228D892F90E0805C26
:1001E0009F4F821B91098F73992708958DE191E0AC
:1001F0000E94EA0021E0892B09F420E0822F089573
:1002000080E090E0892B29F00E94F60081110C9487
:1002100000000895FC01A48DA80FB92FB11DA35AA9
:10022000BF4F2C91848D90E001968F739927848F16
:10023000A689B7892C93A089B1898C918370806439
:100240008C93938D848D981306C00288F389E02DDA
:1002500080818F7D80830895EF92FF920F931F938B
:10026000CF93DF93EC0181E0888F9B8D8C8D981369
:100270001AC0E889F989808185FF15C09FB7F89475
:10028000EE89FF896083E889F989808183708064C1
:1002900080839FBF81E090E0DF91CF911F910F910C
:1002A000FF90EF900895F62E0B8D10E00F5F1F4F1B
:1002B0000F731127E02E8C8D8E110CC00FB607FC2A
:1002C000FACFE889F989808185FFF5CFCE010E94B8
:1002D0000A01F1CFEB8DEC0FFD2FF11DE35AFF4F1B
:1002E000F0829FB7F8940B8FEA89FB898081806246
:1002F000CFCFCF93DF93EC01888D8823B9F0AA8903
:10030000BB89E889F9898C9185FD03C0808186FDD0
:100310000DC00FB607FCF7CF8C9185FFF2CF80811F
:1003200085FFEDCFCE010E940A01E9CFDF91CF9189
:100330000895833081F028F4813099F08230A9F05B
:1003400008958730A9F08830C9F08430B1F48091E5
:1003500080008F7D03C0809180008F778093800024
:10036000089584B58F7784BD089584B58F7DFBCFC4
:100370008091B0008F778093B00008958091B00095
:100380008F7DF9CFCF93DF93282F30E0F901E2552D
:10039000FF4F8491F901E656FF4FD491F901EA57D6
:1003A000FF4FC491CC23A1F081110E949901EC2F41
:1003B000F0E0EE0FFF1FE458FF4FA591B491EC91D0
:1003C000ED2381E090E009F480E0DF91CF91089582
:1003D00080E090E0FACF1F93CF93DF93282F30E097
:1003E000F901E255FF4F8491F901E656FF4FD49190
:1003F000F901EA57FF4FC491CC23A9F0162F8111C0
:100400000E949901EC2FF0E0EE0FFF1FEE58FF4F16
:10041000A591B4918FB7F894EC91111108C0D095C3
:10042000DE23DC938FBFDF91CF911F910895DE2BE8
:10043000F8CFCF93DF93EC018091C2019091C3017B
:10044000029749F4C130D10509F43BC06CF560E076
:10045000209709F437C08091C2019091C30104979D
:1004600049F4C130D10509F45CC00CF037C02097C5
:1004700009F442C08091C2019091C301059709F02F
:10048000E5C0CA30D10508F0E1C0FE01E65BFD4FD2
:100490000C943A06A902B502C602DC02F702F90280
:1004A00000030C031D032403C230D105A9F060E052
:1004B000C330D10581F68091C6010E94EB0160E056
:1004C00006C061E08091C6010E94EB0161E080916D
:1004D000C8010E94EB01BFCF61E0EDCFC230D10572
:1004E00039F1C330D10509F0C5CF61E08091C60173
:1004F0000E94EB0160E022C061E08091C6010E9491
:10050000EB0160E08091C8010E94EB0161E0809105
:10051000CA010E94EB0160E08091CC010E94EB01D6
:10052000A9CF60E08091C6010E94EB0161E0EACFB3
:1005300060E08091C6010E94EB0161E08091C801FA
:100540000E94EB0160E08091CA010E94EB0161E032
:10055000E3CF60E08091C6010E94EB0161E08091F1
:10056000C8010E94EB0161E00BC060E08091C60110
:100570000E94EB0161E08091C8010E94EB0160E004
:100580008091CA010E94EB0160E010C060E08091A0
:10059000C6010E94EB0161E08091C8010E94EB015D
:1005A00060E08091CA010E94EB0161E08091CC0182
:1005B0000E94EB0161E015C060E08091C6010E94DD
:1005C000EB0161E08091C8010E94EB0160E0809145
:1005D000CA010E94EB0161E08091CC010E94EB0115
:1005E00060E08091CE01DF91CF910C94EB0161E04E
:1005F000E4CF61E08091C6010E94EB0160E0E2CFB0
:1006000061E08091C6010E94EB0160E08091C80129
:100610000E94EB0161E0DBCF61E08091C6010E94A6
:10062000EB0160E08091C8010E94EB0161E08091E4
:10063000CA010E94EB0160E0CFCF61E08091C6016A
:100640000E94EB0160E08BCF60E0F8CFDF91CF91AB
:100650000895CF93DF9390E0FC01E656FF4F24917D
:100660008A579F4FFC0184918823D1F090E0880F36
:10067000991FFC01E859FF4FA591B491FC01EE5878
:10068000FF4FC591D49161110EC09FB7F8948C9122
:10069000E22FE0958E238C932881E223E8839FBF8D
:1006A000DF91CF9108958FB7F894EC91E22BEC9302
:1006B0008FBFF6CF1F920F920FB60F9211242F9378
:1006C0003F934F935F936F937F938F939F93AF93DA
:1006D000BF93EF93FF938DE191E00E940A01FF9198
:1006E000EF91BF91AF919F918F917F916F915F91AA
:1006F0004F913F912F910F900FBE0F901F90189523
:100700001F920F920FB60F9211242F938F939F93E6
:10071000EF93FF93E0912D01F0912E018081E09104
:100720003301F091340182FD1BC09081809136012C
:100730008F5F8F7320913701821741F0E09136016E
:10074000F0E0E35EFE4F958F80933601FF91EF91CD
:100750009F918F912F910F900FBE0F901F90189522
:100760008081F4CF1F920F920FB60F9211242F9316
:100770003F938F939F93AF93BF9380911501909177
:100780001601A0911701B09118013091140123E0D6
:10079000230F2D3758F50196A11DB11D209314018B
:1007A0008093150190931601A0931701B09318013F
:1007B0008091190190911A01A0911B01B0911C0127
:1007C0000196A11DB11D8093190190931A01A09368
:1007D0001B01B0931C01BF91AF919F918F913F91ED
:1007E0002F910F900FBE0F901F90189526E8230FA2
:1007F0000296A11DB11DD2CFCF93DF93EDE1F1E0C1
:100800001382128288EE93E0A0E0B0E084839583A7
:10081000A683B78386E091E09183808385EC90E0A6
:100820009587848784EC90E09787868780EC90E0BA
:10083000918B808B81EC90E0938B828B82EC90E0AB
:10084000958B848B86EC90E0978B868B118E128E25
:10085000138E148ECAEBD1E01B861A861982188279
:100860001E8A1F8A188E198E84E290E09F838E83E1
:1008700086E090E09D878C8789E090E09F878E8757
:100880008AE090E0998B888B8BE090E09B8B8A8B41
:1008900061E086E00E94290361E08E850E942903C1
:1008A00061E088890E94290361E08A890E94290306
:1008B0001D8A1C8A84E090E099878887DF91CF9118
:1008C0000895789484B5826084BD84B5816084BDC8
:1008D00085B5826085BD85B5816085BD80916E00DE
:1008E000816080936E00109281008091810082600F
:1008F000809381008091810081608093810080914C
:1009000080008160809380008091B100846080933A
:10091000B1008091B00081608093B00080917A0036
:10092000846080937A0080917A00826080937A005C
:1009300080917A00816080937A0080917A0080684B
:1009400080937A001092C10060E082E00E94290347
:1009500060E083E00E94290360E084E00E942903B4
:1009600061E086E00E94290361E089E00E9429039A
:1009700061E08AE00E94290361E08BE00E94290384
:100980002091C0013091C101032E000C440B550B86
:1009900060E077E883E993E00E941B06CA01B90191
:1009A00023E030E040E050E00E941B062093BC01B1
:1009B0003093BD014093BE015093BF01E0912D01E2
:1009C000F0912E0182E08083E0912901F0912A01CB
:1009D0001082E0912B01F0912C018FEC808310921A
:1009E0003501E0913101F091320186E08083E091A0
:1009F0002F01F0913001808180618083E0912F018F
:100A0000F0913001808188608083E0912F01F09126
:100A10003001808180688083E0912F01F091300166
:100A200080818F7D808354E0852E912C0AE010E038
:100A300060E0662E60E0762EEE24EA94FE2CC1E0A3
:100A4000D0E082E00E94C2015C0183E00E94C2010A
:100A50006C0184E00E94C201AB2809F097C0D093DA
:100A60000101C093000182E00E94C201892BD9F3E9
:100A700080910001909101016C0197FF04C0CC248A
:100A8000DD24C81AD90A181619060CF098C0D0939C
:100A9000BB01C093BA01C114D10409F4ACC03FB783
:100AA000F8948091190190911A01A0911B01B091C5
:100AB0001C0126B5A89B05C02F3F19F00196A11D6A
:100AC000B11D3FBFBA2FA92F982F8827820F911DE4
:100AD000A11DB11D42E0880F991FAA1FBB1F4A9597
:100AE000D1F74091D0015091D1016091D201709124
:100AF000D3011C012D01241A350A460A570A4091D8
:100B0000BC015091BD016091BE017091BF012416DE
:100B100035064606570608F4BECF8093D001909361
:100B2000D101A093D201B093D3018091C4019091DF
:100B3000C5012091BA013091BB012130310509F086
:100B400046C001969093C5018093C4012091C001D5
:100B50003091C1018217930721F41092C5011092C0
:100B6000C40181E0C81AD1088091C4019091C501E7
:100B70002091C2013091C301B8012530310509F03F
:100B8000B4010E9407060E94190285CFCD2851F4B6
:100B9000F0920101E092000183E00E94C201892BE2
:100BA000D9F366CF892B09F063CF1092010110921F
:100BB000000184E00E94C201892BD9F359CF892B0F
:100BC00009F469CF1092BB011092BA0164CF892B4E
:100BD00041F48091C0019091C1019093C50180932F
:100BE000C4018091C4019091C50101979093C50102
:100BF0008093C401B6CF6114710409F422CF0E941E
:100C0000F600882309F41DCF0E9400001ACF97FB3D
:100C1000072E16F4009407D077FD09D00E944006F5
:100C200007FC05D03EF4909581959F4F08957095EF
:100C300061957F4F0895052E97FB1EF400940E9446
:100C4000320657FD07D00E94540607FC03D04EF42D
:100C50000C94320650954095309521953F4F4F4F5B
:100C60005F4F089590958095709561957F4F8F4F58
:100C70009F4F0895EE0FFF1F0590F491E02D09940A
:100C8000AA1BBB1B51E107C0AA1FBB1FA617B707B2
:100C900010F0A61BB70B881F991F5A95A9F78095CE
:100CA0009095BC01CD010895A1E21A2EAA1BBB1B91
:100CB000FD010DC0AA1FBB1FEE1FFF1FA217B30728
:100CC000E407F50720F0A21BB30BE40BF50B661F3E
:100CD000771F881F991F1A9469F760957095809502
:100CE00090959B01AC01BD01CF010895F894FFCF11
:100CF000FFFF000000002C018C00B9007901EA0020
:040D0000C800DC004B
:00000001FF
